S01900004B4559424F4152445F4558414D504C45322E737265631D
S1130000FDC0000021C100001FC100001DC100008F
S11300101BC1000019C1000017C1000015C1000078
S113002013C1000011C100000FC100000DC1000088
S11300300BC1000009C1000007C1000005C1000098
S113004003C1000001C10000FFC00000FDC00000AA
S1130050FBC00000F9C00000F7C00000F5C00000BC
S1130060F3C00000F1C00000EFC00000EDC00000CC
S1130070EBC00000E9C00000E7C00000E5C00000DC
S1130080E3C00000E1C00000DFC00000DDC00000EC
S1130090DBC00000D9C00000D7C00000D5C00000FC
S11300A0D3C00000D1C00000CFC00000CDC000000C
S11300B0CBC00000C9C00000C7C00000C5C000001C
S11300C0C3C00000C1C00000BFC00000BDC000002C
S11300D0BBC00000B9C00000B7C00000B5C000003C
S11300E0B3C00000B1C00000AFC00000ADC000004C
S11300F0ABC00000A9C00000A7C00000A5C000005C
S1130100A3C00000A1C000009FC000009DC000006B
S11301109BC0000099C0000097C0000095C000007B
S113012093C0000091C000008FC000008DC000008B
S11301308BC0000089C0000087C0000085C000009B
S113014083C0000081C000007FC000007DC00000AB
S11301507BC0000079C0000077C0000075C00000BB
S113016073C0000071C000006FC000006DC00000CB
S11301706BC0000069C0000067C0000065C00000DB
S113018063C0000061C000005FC000005DC00000EB
S11301905BC0000059C0000057C0000055C00000FB
S11301A053C0000051C000004FC000004DC000000B
S11301B04BC0000049C0000047C0000045C000001B
S11301C043C0000041C000003FC000003DC000002B
S11301D03BC0000039C0000037C0000035C000003B
S11301E033C0000031C000002FC000002DC000004B
S11301F02BC000000C94F60C0C94AF0D11241FBE00
S1130200CFEFDFE3DEBFCDBF00E00CBF18BE19BEE9
S11302101ABE1BBE10E2A0E0B0E2E0E3FEE100E0A3
S11302200BBF02C007900D92A03CB107D9F71BBECB
S113023021E2A0ECB0E201C01D92A838B207E1F7B8
S11302400E949D0E0C94160FDBCE08950895089518
S1130250089508958091C0209091C120A091C2205A
S1130260B091C3200196A11DB11D8093C02090932D
S1130270C120A093C220B093C3208C339105A10563
S1130280B10509F45BC0F4F48E319105A105B10503
S113029009F448C05CF48A309105A105B105D1F197
S11302A04497A105B10509F069C038C088329105A9
S11302B0A105B10509F43AC0C297A105B10509F039
S11302C05DC038C08A359105A105B10509F442C065
S11302D06CF486349105A105B10509F433C0803569
S11302E09105A105B10509F049C030C08E369105CC
S11302F0A105B10509F436C0843F21E09207A105A8
S1130300B10509F433C084369105A105B10509F09E
S113031035C024C08BE0B4D18BE080C184E0B0D17F
S113032084E07CC18FE0ACD18FE078C18FE0A8D1AC
S11303308FE074C182E1A4D182E170C18CE2A0D1CA
S11303408CE26CC18AE19CD18AE168C188E098D1D1
S113035088E064C18FE094D18FE060C187E190D1DF
S113036087E15CC188E28CD188E258C11092C02038
S11303701092C1201092C2201092C32008950895B3
S11303800F931F93CF93DF9300D01F92CDB7DEB7A7
S11303908FEF80937000809371008093720080933C
S11303A0730080937400809375008093760065E0F9
S11303B081E490E082D66CE170E082E084D68A83A6
S11303C06DE170E082E07FD6898389819A8101960C
S11303D021F480E493E289839A8389819A818B83CF
S11303E09C83E0E6F0E082838C8183838FB7F8946A
S11303F0E0E5F0E09081926090838FBF818181FF7E
S1130400FDCF8FB7F89400E510E0D80116969C91C3
S11304101697997F16969C931697E0E6F0E090E87D
S113042095839BEB968316969C91169794601696EB
S11304309C939081916090838FBF61E080E490E011
S11304403CD68FB7F894F80190819E7F90838FBF3C
S11304502496CDBFDEBFDF91CF911F910F910895F8
S11304609FB7F894E82FF0E0E059FF4F6095808142
S1130470682360839FBF0895863011F468E101C04A
S113048060E0E0E5F0E0818181FD24C08FB7F8945D
S11304909081926090838FBF818181FFFDCF8FB760
S11304A0F894A0E5B0E016969C911697997F16965D
S11304B09C931697E0E6F0E090E895839BEB968397
S11304C016969C911697946016969C9390819160D1
S11304D090838FBF636084E490E0EFD560E480E0B4
S11304E0BFCFCF93DF93FC01709620E030E0C62F9E
S11304F0D0E0DE01022E02C0B595A7950A94E2F77A
S1130500A0FD50832F5F3F4F31962830310589F786
S113051040FF0AC041FF03C0FC01658302C0FC0127
S11305206683FC01618302C0FC016283DF91CF9189
S1130530089580E0089530917A2120917B21822FC3
S113054090E00297E1F431111CC080917E219091DA
S11305507F210197C1F480ED90E2809380219093F4
S1130560812187EF92E0809384219093852181E01B
S113057090E0809382219093832181E0089580E02C
S1130580089580E0089580E008950F931F9380916B
S1130590C620811118C088E0E7ECF0E2A2EDB0E2D9
S11305A001900D928A95E1F71092CF2007EE12E0A8
S11305B028E030E042ED50E260E081E80E94400C27
S11305C08093C62001C080E01F910F91089510927E
S11305D0C6208091CF208111D8CF08952BE932E035
S11305E046E050E265EC70E284EC90E274C08091E5
S11305F0D020C5CE0C94F60E08951092C42010920B
S1130600C5201092C62088E0E7ECF0E2DF011D92DD
S11306108A95E9F71092CF200C94F20ECF93CFB7BE
S1130620F8949091C920992341F09817A9F0EAEC25
S1130630F0E293E02191211102C0CFBF1EC0281720
S113064021F09F5F9830B1F705C0983019F09730CA
S113065020F00CC0CFBF11C092E0E92FF0E0E953C5
S1130660FF4D818180839F5F9730B9F71092CE2030
S113067081E08093CF2089DFCFBF81E0CF910895BF
S1130680CF93CFB7F8949091C9209923B1F09817DC
S113069041F0EAECF0E293E02191222349F028139F
S11306A003C0CFBF81E015C09F5F9830A9F702C097
S11306B0983021F4CFBF80E00CC092E0E92FF0E045
S11306C0E953FF4D808381E08093CF205EDFCFBF6D
S11306D081E0CF910895CF93DF93EA01409178218F
S11306E044230CF065C0407609F040C02091792184
S11306F02630E1F583D1FC012285213299F5209140
S11307007B212132B9F49C01275F3F4F2093802144
S11307103093812140917E2150917F21218530E0C9
S11307204217530708F49A012093822130938321BE
S113073081E069C0FC013785231316C0C093802172
S1130740D09381212089318980917E2190917F21CC
S11307502817390708F4C9018093822190938321D3
S113076081E051C080E04FC080E04DC0403209F0CC
S113077041C020917921223019F02330E9F50CC0D1
S1130780809380219093812181E090E08093822165
S11307909093832181E037C06093802170938121FD
S11307A081E090E0809382219093832181E02BC0AB
S11307B04076403219F540917921493031F000F109
S11307C04A3031F04B30E1F409C0F90119951BC0EE
S11307D020917B21FC01208381E015C080917E2142
S11307E090917F21892B71F480917A21FB01808380
S11307F081E009C080E007C080E005C080E003C05C
S113080080E001C080E0DF91CF910895E091DD2088
S1130810F091DE200190F081E02D228133812E0FB2
S11308203F1F822F932F08951F93CF93DF93EC01E3
S1130830162FECDF2881FE01E20FF11DE817F907FE
S1130840A0F421812430A1F0211306C016C0218117
S1130850243089F0211789F02081E20FF11DE81777
S1130860F907A8F3E0E0F0E008C0E0E0F0E005C03C
S1130870E0E0F0E002C0E0E0F0E08E2F9F2FDF9197
S1130880CF911F9108950F931F93CF93DF93182F48
S1130890062F8091DC20882369F1E091DD20F0911E
S11308A0DE20C081D1818C81181730F5C093DA2005
S11308B0D093DB20ABDF9C01C817D907F8F49981EA
S11308C0943061F49A81911309C08B81801306C01E
S11308D0C093DA20D093DB2081E011C09881C90F46
S11308E0D11DC217D30758F3C093DA20D093DB206D
S11308F080E005C080E003C080E001C080E0DF91BB
S1130900CF911F910F91089580917A218F7759C7C4
S11309101F93CF93DF93182FB6DF882341F1C09143
S1130920DA20D091DB2065E0CE017EDFEC01009778
S113093041F04C815D816B818A8159D78111F3CF5C
S113094017C0A091DD20B091DE20812F90E0880FA8
S1130950991F1296ED91FC911397E80FF91F0190DE
S1130960F081E02D0190F081E02D199501C080E027
S1130970DF91CF911F9108950F931F93CF93DF932E
S1130980C82F60E080DF882389F1A091DD20B09139
S1130990DE20EC2FF0E0EE0FFF1F12962D913C911C
S11309A01397E20FF31F00811181D8011696ED9180
S11309B0FC9117971995682F8C2F65DF8823C1F058
S11309C0C091DA20D091DB2065E0CE012DDFEC016F
S11309D0009721F08A810E94ED0CF6CFD80112967F
S11309E0ED91FC911397199581E003C080E001C05B
S11309F080E0DF91CF911F910F9108958091DA20CB
S1130A009091DB20089579C60895CF938091DC20DE
S1130A108823C1F0E091DD20F091DE200190F08187
S1130A20E02D8481882371F0C0E08C2FA5DFCF5F97
S1130A30E091DD20F091DE200190F081E02D8481B1
S1130A40C81798F31092DC208091DF2081FD0E946A
S1130A50EF0E81E090E08093DF209093E020CF912F
S1130A600895CF938091DC20882341F1E091DD202B
S1130A70F091DE20A081B18114968C918823F1F04D
S1130A80C0E08C2F90E0880F991F0280F381E02D45
S1130A90E80FF91F0190F081E02D0084F185E02D2D
S1130AA0309709F01995CF5FE091DD20F091DE20B9
S1130AB0A081B18114968C91C81718F3CF91089531
S1130AC0FF920F931F93CF93DF9310928221109282
S1130AD083211092842110928521109286211092F4
S1130AE087212091782122230CF08FC280917E21CE
S1130AF090917F21009709F08DC27FC22F7109F078
S1130B009DC030917921363081F0383009F48BC0A2
S1130B10311194C0029739F462E070E08FED90E2F5
S1130B205DD681E0F3C180E0F1C120917A2130915A
S1130B307B21832F99278230910579F083309105A9
S1130B4069F1019709F067C080914B2090914C2086
S1130B50DC016C9170E042D64DC0E0914B20F091E5
S1130B604C208189281708F058C0C9019927880F9B
S1130B70991F880F991FE0914D20F0914E20E80FA6
S1130B80F91F80819181FC016281738127D6E091F4
S1130B908021F091812182E081832CC03327213090
S1130BA0310559F020F022303105C9F50AC064E05E
S1130BB070E08AE890E212D61DC08EE890E229E047
S1130BC003C088E990E22CE0382FE8EAF0E2A82F8D
S1130BD0B92F8D918083118232968A2F831B8217BD
S1130BE0C0F3220F622F6E5F6093A62070E086EA46
S1130BF090E2F4D580917E2190917F2120918221F1
S1130C00309183218217930760F48093822190931B
S1130C10832181E07BC180E079C180E077C180E0FD
S1130C2075C181E073C1019739F461E070E08CED26
S1130C3090E2D4D581E06AC180E068C1213009F036
S1130C4040C0309179213A30E1F5019791F58091D6
S1130C50DC20882381F1C0917C21D0917D218C2FCF
S1130C600091DD201091DE20D801ED91FC9194815A
S1130C70C91718F560E007DE882309F1CE0199272A
S1130C80880F991FD8011296ED91FC911397E80FE4
S1130C90F91F0190F081E02D86819781FC0119955F
S1130CA08093E12061E070E081EE90E297D581E0ED
S1130CB02DC180E02BC180E029C180E027C180E004
S1130CC025C1223009F024C12091792121111BC1B1
S1130CD0029771F480917C21B3D58093E220109225
S1130CE0E32062E070E082EE90E278D581E00EC10C
S1130CF080E00CC12F7109F0B0C08091792183305C
S1130D00C1F120F4813009F0A8C016C0853021F06B
S1130D10893009F0A2C04AC080917E2190917F2140
S1130D20892B41F484E894E0809384219093852175
S1130D3081E0ECC080E0EAC080917E2190917F2127
S1130D40892B99F480917A2190917B21019779F4F0
S1130D508091DF209091E0208D7F8093DF2090931D
S1130D60E0200E94EF0E81E0D1C080E0CFC080E09F
S1130D70CDC080917E2190917F21892B99F480911F
S1130D807A2190917B21019779F48091DF209091D1
S1130D90E02082608093DF209093E0200E94EC0E9C
S1130DA081E0B4C080E0B2C080E0B0C080917E2118
S1130DB090917F21892B09F044C006D5882309F43A
S1130DC042C020917A2130917B213327E0914B203E
S1130DD0F0914C20818990E082179307B0F115DEE1
S1130DE080917A2190917B218093DC20882379F172
S1130DF099270197880F991F880F991FE0914D201B
S1130E00F0914E20E80FF91FE093DD20F093DE20EF
S1130E100190F081E02D84818823D9F0C0E060E066
S1130E208C2F76DD8823B9F0CF5FE091DD20F0913F
S1130E30DE200190F081E02D8481C81780F381E0E9
S1130E4065C080E063C080E061C080E05FC081E095
S1130E505DC081E05BC080E059C0213001F5809124
S1130E6079218B30E1F480917E2190917F21892B2F
S1130E7081F48091DC20882371F0C0917C21D09191
S1130E807A218C2F79DD882341F06D2F8C2F40DD62
S1130E903DC080E03BC080E039C080E037C02230F4
S1130EA0B9F580917921813019F0833071F514C03E
S1130EB080917E2190917F21892B51F480917A2118
S1130EC090917B21892B31F480917C21C0D41EC068
S1130ED080E01CC080E01AC080917E2190917F2127
S1130EE0892B69F480917A2190917B21892B49F493
S1130EF0CCE7D1E288813AD588815FD507C080E00C
S1130F0005C080E003C080E001C080E0811177C0AB
S1130F10809178218F71813071F58091DC20882354
S1130F2051F100917C2110917D21F02EC091DD20A2
S1130F30D091DE20E881F98184810817E0F460E033
S1130F40802FA1DC8823B9F011279801220F331FC9
S1130F50EA81FB81E20FF31FC081D181EE81FF8121
S1130F601995682F8F2D8FDC882329F0EC81FD8162
S1130F701995811146C0809178218F71823009F0D2
S1130F8042C08091DC20882381F1E091DD20F09142
S1130F90DE20A081B18114968C91882341F110E068
S1130FA0212F30E0220F331F0280F381E02DE20F66
S1130FB0F31FC081D181EE81FF811995682F812FA4
S1130FC062DC8823B1F0EC81FD811995811113C095
S1130FD01F5FE091DD20F091DE20A081B1811496A5
S1130FE08C911817E8F280E01AC080E018C080E005
S1130FF016C080E014C081E012C080E010C081E01F
S11310000EC081E00CC080E00AC0822F807609F017
S11310107FCF70CE322F307609F07ACF6FCDDF914B
S1131020CF911F910F91FF90089543E050E061E04C
S113103080E096E056DA43E050E062E080E096E03B
S113104050DA43E050E064E080E096E04ADA43E0BE
S113105050E068E080E096E044DA43E050E060E18C
S113106080E096E03EDA43E050E060E280E096E023
S113107038DA43E050E060E480E096E032DA43E0BE
S113108050E060E880E096E02CDA40E058E161E06E
S113109080E296E026DA40E058E162E080E296E001
S11310A020DA40E058E164E080E296E01ADA40E0B9
S11310B058E168E080E296E014CA1BBEFC0128ED0A
S11310C024BF608308954091CA01E62FF72F8093CF
S11310D0CA0184914093CA010895811118C0909166
S11310E02221992389F09FB7F894E3E7F1E2208164
S11310F0215020839FBF08C09FB7F894E3E7F1E233
S113110020812F5F20839FBF809322210895909197
S11311102221992389F3F8CF282F2F7030E0220F52
S1131120331F992787FD90958827990F881F992742
S1131130280F391F220F331F220F331F220F331F93
S113114024513F4D822F932F0895CF93DF936370E3
S1131150613029F010F4C0E403C0C0E801C0C0EC61
S113116040385105E1F050F440325105A1F04034CB
S1131170510599F04031510561F419C0411592E0CF
S1131180590789F04F3F93E0590779F041155140D1
S113119041F0D0E00DC0D2E00BC0D3E009C0D4E0F0
S11311A007C0D5E005C0D6E003C0D7E001C0D1E058
S11311B0B3DFFC01118286E08083CD2BC183DF91F4
S11311C0CF9108950F93E8ECF4E080818F7D8083C4
S11311D080818F7D8083E4EFF0E202E0059310923A
S11311E0F6201092F72000E2069300E40693ECEE5A
S11311F0F0E200E2069300E4069310928421109238
S113120085211092862110928721109282211092BA
S1131210832110926B210F9108950F9385E08093A1
S11312206B21E5EFF0E204E00593EDEEF0E204E07B
S113123005930F9108950F9383E080936B2110928F
S1131240F6201092F720E4EFF0E202E006930F910B
S113125008950F9384E080936B21ECEEF0E202E0BA
S113126006930F910895E0918421F09185213097A0
S113127009F0199508950F93CF93DF9380916B2113
S1131280833019F4F0DF9EDF5AC080916E21909173
S11312906F21C0918221D0918321C81BD90B41F5C4
S11312A020916C2130916D21820F931F80936C21CA
S11312B090936D2120917E2130917F218217930795
S11312C021F080917021882311F0C3DF38C0E091B0
S11312D08621F0918721309799F01995882381F020
S11312E010926E2110926F21C0918221D09183219E
S11312F0C830D10528F010927021C8E0D0E003C0B6
S113130081E080937021C093F620D093F7208091E0
S11313106E2190916F212091802130918121280F9D
S1131320391F2093F8203093F920C80FD91FC09398
S11313306E21D0936F21E4EFF0E202E00693DF9197
S1131340CF910F910895FC01818187708430A9F0B9
S113135030F4823061F070F4813031F41AC0863098
S113136091F070F0873091F028E030E014C020E272
S113137030E011C020E430E00EC020E830E00BC0C3
S113138020E031E008C020E032E005C02FEF33E078
S113139002C020E130E0822F932F0895282F2F7070
S11313A030E0220F331F992787FD90958827990FE6
S11313B0881F9927280F391F22503109C901880F26
S11313C0991F880F991F880F991F280F391F205FB5
S11313D03E4D822F932F08950F938091CC0480FF6C
S11313E063C081E08093CC04ECEEF0E200E8069365
S11313F0E4EFF0E200E806938093CA04ECEEF0E236
S113140000E1069380916B21882329F08350823078
S113141008F429DFD7DE8091EE209091EF20089721
S113142009F044C088E0E3E6F1E2A8E7B1E2019004
S11314300D928A95E1F7E8ECF4E080818062808384
S11314408081806280833CDB811103C0E6DE81E021
S11314502EC080917821882374F410926C2110920C
S11314606D2110926E2110926F2182E080936B2186
S113147002DF81E01CC080917E2190917F21892B25
S113148019F4D9DE81E013C010926C2110926D2101
S113149010926E2110926F2181E080936B21ECEE0B
S11314A0F0E202E0069303C080E001C081E00F9106
S11314B00895BF92CF92DF92EF92FF920F931F9302
S11314C0CF93DF93B82E6ADFEC018B2D25DE7C01F0
S11314D03ADF6C01BB200CF05DC0D70116962D914C
S11314E03C9117978D819E81280F391F2D833E8350
S11314F08B819C812817390709F43AC0FC01E21B4F
S1131500F30B9F012115F4E03F0738F02FEF33E090
S1131510C901B6016ED4281B390B888181FF0BC029
S1131520C901B60166D441E050E0892B11F040E0D6
S113153050E0CA0102C080E090E0988180FB91F9FC
S11315409883D70116961D921C92179712962D9385
S11315503C93139729813A818D819E81820F931F39
S113156014968D939C931597F70102E0069398C007
S1131570888181FF87C08D7F8883D70116961D924D
S11315801C92179712961D921C921397F70102E072
S1131590069386C0D70112960D911C9113978881EA
S11315A082FF17C029813A818D819E81280F391FBE
S11315B08B819C81B6011DD4B0E4BB9EF001112443
S11315C0ED51FF4D482F592F6E2F7F2F822F932FD0
S11315D024D42D813E81200F311F2D833E83EB8146
S11315E0FC81E217F30710F4ED83FE83D70116960E
S11315F02D913C9117972017310709F043C08D8135
S11316009E81E817F90709F43DC0E81BF90BE115C1
S1131610B4E0FB0740F0EFEFF3E0CF01B601E9D30C
S1131620E81BF90B05C0CF01B601E3D3E81BF90BA6
S1131630D70112961D921C921397EC15FD0578F4B0
S1131640888184608883B0E4BB9EC00111248D51DD
S11316509F4DF70184839583C682D7820FC0298169
S11316603A818D819E81820F931FD70114968D93A9
S11316709C9315971696ED93FC931797F70102E048
S113168006930EC0888180FF0BC08E7F8883EF8114
S1131690F885309729F06D817E814B2D80E0199576
S11316A0DF91CF911F910F91FF90EF90DF90CF903A
S11316B0BF900895CF93CFB7F89481E00EDDEAECA4
S11316C0F4E080E4808380E28083E1ECF4E08081D4
S11316D081608083A9ECB4E08C9182608C93E8EC07
S11316E0F4E08081806480838C9181608C9380811C
S11316F080688083CFBFCF910895CF93DF93C0E6F6
S1131700D0E0188280E30E943C02E0ECF4E08081A7
S11317108064808381E08883CFB7F8941092ED20B1
S11317201092F5201092FD2010920521E0E1F1E2E3
S113173080818E7F8083E9E1F1E280818E7F8083E6
S11317406AE170E082E0BFDC8F3F19F08093FA0415
S113175003C08FE18093FA046BE170E082E0B3DCB4
S11317608F3F19F08093FB0403C08FE18093FB0447
S1131770E0ECF4E0808181608083808180688083F4
S11317808081806180838CEE90E286839783808160
S1131790806280838FEF8093C504E8ECF4E080815D
S11317A081608083109222218FB7F894E7E7F1E2F9
S11317B090819F5F90838FBF7DDFCFBFDF91CF91FB
S11317C008958093C30408958091C30408952091DB
S11317D00C2130910D21822F932F08958093802125
S11317E09093812160938221709383210895EF92D5
S11317F0FF920F931F93CF93DF93F82EE62E8A0167
S11318008BDCEC018981807C89F4A8016E2D8F2DFD
S11318109CDC8981807C803C21F4898187708730BD
S113182039F089818062898381E003C080E001C04E
S113183081E0DF91CF911F910F91FF90EF90089578
S11318406BDCFC01818182FB882780F90895CF93AA
S1131850C82F62DCFC01818182FF0FC081818B7FF4
S113186081838C2F9BDDFC01808180FF06C08E7FED
S113187080830780F085E02D199581E0CF9108954C
S11318808F929F92AF92BF92CF92DF92EF92FF928C
S11318900F931F93CF93DF93982E862E5A016901DD
S11318A07DDD7C01892D38DCEC018981807C09F4A3
S11318B04DC08981807C803C19F0898182FD48C0BB
S11318C08FB7F894F701908190FF03C08FBF80E039
S11318D040C0F7019081916090838FBFA182B28252
S11318E0C382D4821582168207831087811008C0B0
S11318F021E030E0C114D10429F020E030E002C03E
S113190021E030E0F701808120FB81F98B7F808327
S113191099201CF41E821F8215C08981807C803C22
S113192069F4CE0110DDBC01C60163D2892B31F00C
S1131930F70180818E7F808380E00BC01A821B8236
S11319401E821F82892DB5DD81E003C080E001C0C5
S113195080E0DF91CF911F910F91FF90EF90DF9086
S1131960CF90BF90AF909F908F9008950F931F9347
S1131970CF93DF93182FD0DBEC01812F0FDDDC0137
S1131980FE0102E005938C9180FF12C08E7F8C9340
S11319901796ED91FC911897309751F011231CF490
S11319A06E817F8102C06A817B81412F81E019951C
S11319B0DF91CF911F910F9108950F93CF93C82F6B
S11319C0ABDBFC0181818460818301E006938C2F71
S11319D0CDDF81E0CF910F910895CF93C82FC6DF5B
S11319E08C2F9ADBFC011182CF9108951F920F92E4
S11319F00FB60F92112408B60F9218BE09B60F92B3
S1131A0019BE0BB60F921BBE0F932F933F934F93A8
S1131A105F936F937F938F939F93AF93BF93EF9352
S1131A20FF938091CB04882334F480E88093CA0424
S1131A3018D8CAD17CC08091CB0482FF20C084E036
S1131A408093CA048091F42086FF71C08091CC04F5
S1131A5081FD6DC0C1DC81116AC080916B21813030
S1131A6011F4E9DB64C0843009F061C0E5EFF0E211
S1131A7004E00593EDEEF0E204E0059358C0809194
S1131A80CB0481FF4FC082E08093CA048091EC2094
S1131A9086FF4DC08091CC0481FD49C09DDC81113D
S1131AA046C080916B21823011F4D3DB40C0833077
S1131AB009F03DC0E5EFF0E204E00593EDEEF0E25D
S1131AC004E0059334C080E18093CA040E940505B4
S1131AD01092C30448E050E060E080E036DB48E068
S1131AE050E060E080E831DB83E691E28093F0200F
S1131AF09093F12067DB1BC08091CB0486FF07C065
S1131B0080E48093CA0480E0E8DA58D110C0809160
S1131B10CB0485FF0CC080E28093CA0481E0DDDA47
S1131B2050D105C08091CB0484FFE6CFCCCFFF9188
S1131B30EF91BF91AF919F918F917F916F915F9141
S1131B404F913F912F910F910F900BBE0F9009BEB3
S1131B500F9008BE0F900FBE0F901F9018951F9204
S1131B600F920FB60F92112408B60F9218BE09B641
S1131B700F9219BE0AB60F921ABE0BB60F921BBE75
S1131B800F931F932F933F934F935F936F937F9381
S1131B908F939F93AF93BF93CF93DF93EF93FF9371
S1131BA08091CC0481FD03C017DC8111A9C082E0BF
S1131BB08093CC048091C5048195880FECEEF0E20B
S1131BC0E81BF109208131812C5E3042369527953E
S1131BD03695279536952795822F869520FF02C046
S1131BE0C0E801C0C0E0C80F8C2F96DAFC018081E8
S1131BF085FF86C000E20693C1117CC080916B21F1
S1131C00843019F430DBDEDA7BC0C091EE20D09151
S1131C10EF20809182219091832100916E21109177
S1131C206F2198012C0F3D1F8217930718F4EC01C4
S1131C30C01BD10B2091802130918121200F311FB5
S1131C4083E691E24C2F5D2F682F792F822F932FFB
S1131C50E4D00C0F1D1F00936E2110936F21289761
S1131C6069F480916C2190916D21800F911F2091D6
S1131C707E2130917F218217930788F0009382217F
S1131C8010938321E0918621F0918721309729F0E8
S1131C901995811102C0C1DA33C0CDDA31C0809107
S1131CA082219091832108171907F9F4E091862184
S1131CB0F0918721309711F4B0DA22C0199581117F
S1131CC002C0ABDA1DC020916C2130916D2180914E
S1131CD06E2190916F21820F931F80936C219093BA
S1131CE06D2110926E2110926F21ECEEF0E202E071
S1131CF0069306C0C03811F4BEDA02C08C2FD9DBBB
S1131D00FF91EF91DF91CF91BF91AF919F918F910F
S1131D107F916F915F914F913F912F911F910F91FF
S1131D200F900BBE0F900ABE0F9009BE0F9008BE15
S1131D300F900FBE0F901F90189587E0E0EAF0E037
S1131D4082837894109272211092732110927421DC
S1131D50109275211092762181E0809377210E9460
S1131D60C00163D90E9425010E9426010E94030537
S1131D70C2E7D1E283E791E2A8E4B0E0F8942881D5
S1131D80211107C0FC012F5F31913323E1F32111AD
S1131D9002C07894F3CF3C91E22FF0E0E150F04E92
S1131DA0232F217F3081232B2C932C9121602C9382
S1131DB0789488952C912E7F2C93E0CF0C94260157
S1131DC008950C942901089580917121882319F0B4
S1131DD0FEDC0C942A0108950C94270108950C94B8
S1131DE02801089581E08093712108951092712152
S1131DF00895AA1BBB1B51E107C0AA1FBB1FA6174E
S1131E00B70710F0A61BB70B881F991F5A95A9F79F
S1131E1080959095BC01CD010895FB01DC0102C0C1
S1131E2001900D9241505040D8F70895F894FFCF97
S1131E30000E060C040005010906A101050719E0BE
S1131E4029E7150025017501950881028101190012
S1131E502965150025657508950681000508190191
S1131E602905150025017501950591029503910138
S1131E70C0FD02FA02EE029902000078204F2056BB
S1131E8020532041200009022200010100E0320910
S1131E900400000103000100092111010001223B9B
S1131EA00007058103080002120100020000000877
S1131EB0EB0301240001010200010403090441545D
S1131EC04D454C2041534600484944204B657962B6
S1131ED06F61726400000003000000000000000055
S1131EE000000000000000000000000000000000EE
S9030000FC
